{
  "_format": "hh-sol-artifact-1",
  "contractName": "CoinFlip",
  "sourceName": "contracts/chainlink/CoinFlip.sol",
  "abi": [
    {
      "inputs": [
        {
          "internalType": "uint64",
          "name": "_subscriptionId",
          "type": "uint64"
        },
        {
          "internalType": "address",
          "name": "vrfCoordinator",
          "type": "address"
        },
        {
          "internalType": "bytes32",
          "name": "_keyHash",
          "type": "bytes32"
        }
      ],
      "stateMutability": "payable",
      "type": "constructor"
    },
    {
      "inputs": [
        {
          "internalType": "address",
          "name": "have",
          "type": "address"
        },
        {
          "internalType": "address",
          "name": "want",
          "type": "address"
        }
      ],
      "name": "OnlyCoordinatorCanFulfill",
      "type": "error"
    },
    {
      "anonymous": false,
      "inputs": [
        {
          "indexed": true,
          "internalType": "address",
          "name": "player",
          "type": "address"
        },
        {
          "indexed": false,
          "internalType": "bool",
          "name": "victory",
          "type": "bool"
        },
        {
          "indexed": false,
          "internalType": "uint256",
          "name": "amount",
          "type": "uint256"
        }
      ],
      "name": "BetResult",
      "type": "event"
    },
    {
      "anonymous": false,
      "inputs": [
        {
          "indexed": false,
          "internalType": "address",
          "name": "user",
          "type": "address"
        },
        {
          "indexed": false,
          "internalType": "uint256",
          "name": "depositAmount",
          "type": "uint256"
        },
        {
          "indexed": false,
          "internalType": "uint256",
          "name": "newBalance",
          "type": "uint256"
        }
      ],
      "name": "DepositToContract",
      "type": "event"
    },
    {
      "anonymous": false,
      "inputs": [
        {
          "indexed": false,
          "internalType": "uint256",
          "name": "requestId",
          "type": "uint256"
        },
        {
          "indexed": false,
          "internalType": "uint256",
          "name": "randomNumber",
          "type": "uint256"
        }
      ],
      "name": "GeneratedRandomNumber",
      "type": "event"
    },
    {
      "anonymous": false,
      "inputs": [
        {
          "indexed": true,
          "internalType": "address",
          "name": "player",
          "type": "address"
        },
        {
          "indexed": false,
          "internalType": "uint256",
          "name": "requestId",
          "type": "uint256"
        }
      ],
      "name": "NewIdRequest",
      "type": "event"
    },
    {
      "anonymous": false,
      "inputs": [
        {
          "indexed": true,
          "internalType": "address",
          "name": "previousOwner",
          "type": "address"
        },
        {
          "indexed": true,
          "internalType": "address",
          "name": "newOwner",
          "type": "address"
        }
      ],
      "name": "OwnershipTransferred",
      "type": "event"
    },
    {
      "anonymous": false,
      "inputs": [
        {
          "indexed": false,
          "internalType": "address",
          "name": "player",
          "type": "address"
        },
        {
          "indexed": false,
          "internalType": "uint256",
          "name": "amount",
          "type": "uint256"
        }
      ],
      "name": "Withdrawal",
      "type": "event"
    },
    {
      "inputs": [
        {
          "internalType": "address",
          "name": "consumerAddress",
          "type": "address"
        }
      ],
      "name": "addConsumer",
      "outputs": [],
      "stateMutability": "nonpayable",
      "type": "function"
    },
    {
      "inputs": [
        {
          "internalType": "uint256",
          "name": "_betChoice",
          "type": "uint256"
        }
      ],
      "name": "bet",
      "outputs": [],
      "stateMutability": "payable",
      "type": "function"
    },
    {
      "inputs": [
        {
          "internalType": "address",
          "name": "receivingWallet",
          "type": "address"
        }
      ],
      "name": "cancelSubscription",
      "outputs": [],
      "stateMutability": "nonpayable",
      "type": "function"
    },
    {
      "inputs": [],
      "name": "deposit",
      "outputs": [],
      "stateMutability": "payable",
      "type": "function"
    },
    {
      "inputs": [],
      "name": "getContractBalance",
      "outputs": [
        {
          "internalType": "uint256",
          "name": "",
          "type": "uint256"
        }
      ],
      "stateMutability": "view",
      "type": "function"
    },
    {
      "inputs": [],
      "name": "getPlayerBalance",
      "outputs": [
        {
          "internalType": "uint256",
          "name": "",
          "type": "uint256"
        }
      ],
      "stateMutability": "view",
      "type": "function"
    },
    {
      "inputs": [],
      "name": "owner",
      "outputs": [
        {
          "internalType": "address",
          "name": "",
          "type": "address"
        }
      ],
      "stateMutability": "view",
      "type": "function"
    },
    {
      "inputs": [
        {
          "internalType": "address",
          "name": "",
          "type": "address"
        }
      ],
      "name": "playersByAddress",
      "outputs": [
        {
          "internalType": "uint256",
          "name": "balance",
          "type": "uint256"
        },
        {
          "internalType": "uint256",
          "name": "betAmount",
          "type": "uint256"
        },
        {
          "internalType": "uint256",
          "name": "betChoice",
          "type": "uint256"
        },
        {
          "internalType": "address",
          "name": "playerAddress",
          "type": "address"
        },
        {
          "internalType": "bool",
          "name": "betOngoing",
          "type": "bool"
        }
      ],
      "stateMutability": "view",
      "type": "function"
    },
    {
      "inputs": [
        {
          "internalType": "uint256",
          "name": "requestId",
          "type": "uint256"
        },
        {
          "internalType": "uint256[]",
          "name": "randomWords",
          "type": "uint256[]"
        }
      ],
      "name": "rawFulfillRandomWords",
      "outputs": [],
      "stateMutability": "nonpayable",
      "type": "function"
    },
    {
      "inputs": [
        {
          "internalType": "address",
          "name": "consumerAddress",
          "type": "address"
        }
      ],
      "name": "removeConsumer",
      "outputs": [],
      "stateMutability": "nonpayable",
      "type": "function"
    },
    {
      "inputs": [],
      "name": "renounceOwnership",
      "outputs": [],
      "stateMutability": "nonpayable",
      "type": "function"
    },
    {
      "inputs": [],
      "name": "requestRandomWords",
      "outputs": [
        {
          "internalType": "uint256",
          "name": "",
          "type": "uint256"
        }
      ],
      "stateMutability": "nonpayable",
      "type": "function"
    },
    {
      "inputs": [
        {
          "internalType": "uint256",
          "name": "",
          "type": "uint256"
        }
      ],
      "name": "temps",
      "outputs": [
        {
          "internalType": "uint256",
          "name": "id",
          "type": "uint256"
        },
        {
          "internalType": "uint256",
          "name": "result",
          "type": "uint256"
        },
        {
          "internalType": "address",
          "name": "playerAddress",
          "type": "address"
        }
      ],
      "stateMutability": "view",
      "type": "function"
    },
    {
      "inputs": [
        {
          "internalType": "address",
          "name": "newOwner",
          "type": "address"
        }
      ],
      "name": "transferOwnership",
      "outputs": [],
      "stateMutability": "nonpayable",
      "type": "function"
    },
    {
      "inputs": [],
      "name": "withdrawContractBalance",
      "outputs": [],
      "stateMutability": "nonpayable",
      "type": "function"
    },
    {
      "inputs": [],
      "name": "withdrawPlayerBalance",
      "outputs": [],
      "stateMutability": "nonpayable",
      "type": "function"
    }
  ],
  "bytecode": "0x610100604052604051620016a9380380620016a9833981016040819052620000279162000159565b81620000333362000109565b6001600160a01b031660805267016345785d8a0000348111156200009d5760405162461bcd60e51b815260206004820152601c60248201527f436f696e466c69703a20436f6e7472616374206e656564732045544800000000604482015260640160405180910390fd5b6001600160a01b03831660a052600180546001600160a01b03191673326c977e6efc84e512bb9c30f76e30c160ed06fb1790556001600160401b03841660c05260e082905260028054349190600090620000f9908490620001b7565b90915550620001df945050505050565b600080546001600160a01b038381166001600160a01b0319831681178455604051919092169283917f8be0079c531659141344cd1fd0a4f28419497f9722a3daafe3b4186f6b6457e09190a35050565b6000806000606084860312156200016f57600080fd5b83516001600160401b03811681146200018757600080fd5b60208501519093506001600160a01b0381168114620001a557600080fd5b80925050604084015190509250925092565b80820180821115620001d957634e487b7160e01b600052601160045260246000fd5b92915050565b60805160a05160c05160e05161145f6200024a6000396000610cc101526000818161038c01528181610443015281816107a70152610cf00152600081816103c30152818161047a015281816107ea0152610d310152600081816104b401526104f6015261145f6000f3fe6080604052600436106100f35760003560e01c8063772a9afc1161008a578063d0e30db011610059578063d0e30db01461031a578063d325101a14610322578063e0c8628914610337578063f2fde38b1461034c57600080fd5b8063772a9afc146102315780638da5cb5b146102bd57806393d81d58146102e5578063bfab3db91461030557600080fd5b80636f9fb98a116100c65780636f9fb98a1461018b578063715018a6146101a0578063718c49d5146101b55780637365870b1461021e57600080fd5b80630b01517c146100f85780630e27e3df14610129578063112940f91461014b5780631fe543e31461016b575b600080fd5b34801561010457600080fd5b50336000908152600360205260409020545b6040519081526020015b60405180910390f35b34801561013557600080fd5b506101496101443660046111c8565b61036c565b005b34801561015757600080fd5b506101496101663660046111c8565b610423565b34801561017757600080fd5b5061014961018636600461120e565b6104a9565b34801561019757600080fd5b50600254610116565b3480156101ac57600080fd5b50610149610536565b3480156101c157600080fd5b506101fa6101d03660046112d8565b6004602052600090815260409020805460018201546002909201549091906001600160a01b031683565b6040805193845260208401929092526001600160a01b031690820152606001610120565b61014961022c3660046112d8565b61054a565b34801561023d57600080fd5b5061028a61024c3660046111c8565b60036020819052600091825260409091208054600182015460028301549290930154909291906001600160a01b03811690600160a01b900460ff1685565b604080519586526020860194909452928401919091526001600160a01b031660608301521515608082015260a001610120565b3480156102c957600080fd5b506000546040516001600160a01b039091168152602001610120565b3480156102f157600080fd5b506101496103003660046111c8565b610790565b34801561031157600080fd5b5061014961084c565b610149610a23565b34801561032e57600080fd5b50610149610a8b565b34801561034357600080fd5b50610116610cb2565b34801561035857600080fd5b506101496103673660046111c8565b610dab565b610374610e21565b604051639f87fad760e01b815267ffffffffffffffff7f00000000000000000000000000000000000000000000000000000000000000001660048201526001600160a01b0382811660248301527f00000000000000000000000000000000000000000000000000000000000000001690639f87fad7906044015b600060405180830381600087803b15801561040857600080fd5b505af115801561041c573d6000803e3d6000fd5b5050505050565b61042b610e21565b604051631cd0704360e21b815267ffffffffffffffff7f00000000000000000000000000000000000000000000000000000000000000001660048201526001600160a01b0382811660248301527f00000000000000000000000000000000000000000000000000000000000000001690637341c10c906044016103ee565b336001600160a01b037f000000000000000000000000000000000000000000000000000000000000000016146105285760405163073e64fd60e21b81523360048201526001600160a01b037f00000000000000000000000000000000000000000000000000000000000000001660248201526044015b60405180910390fd5b6105328282610e7b565b5050565b61053e610e21565b6105486000610f03565b565b66038d7ea4c680003410156105a15760405162461bcd60e51b815260206004820152601c60248201527f436f696e466c69703a20616d6f756e7420696e737566666973616e7400000000604482015260640161051f565b600280546105af919061131d565b3411156105fe5760405162461bcd60e51b815260206004820152601860248201527f436f696e466c69703a20616d6f756e7420746f6f206269670000000000000000604482015260640161051f565b3360009081526003602081905260409091200154600160a01b900460ff16156106695760405162461bcd60e51b815260206004820152601d60248201527f436f696e466c69703a2042657420616c7265616479206f6e676f696e67000000604482015260640161051f565b8015806106765750806001145b6106c25760405162461bcd60e51b815260206004820152601860248201527f436f696e466c69703a204d7573742062652030206f7220310000000000000000604482015260640161051f565b3360008181526003602081905260408220908101805460028084018790556001600160a81b03199091168517600160a01b17909155346001909201829055805491929091610711908490611331565b9091555060009050610721610cb2565b6000818152600460209081526040918290206002810180546001600160a01b0319166001600160a01b03881690811790915590849055915183815292935090917edb1ec50be94c0b0a88f364dd237545bff0f79c5e41688d207c80e0389bfe43910160405180910390a2505050565b610798610e21565b604051630d7ae1d360e41b81527f000000000000000000000000000000000000000000000000000000000000000067ffffffffffffffff811660048301526001600160a01b03838116602484015290917f00000000000000000000000000000000000000000000000000000000000000009091169063d7ae1d3090604401600060405180830381600087803b15801561083057600080fd5b505af1158015610844573d6000803e3d6000fd5b505050505050565b610854610e21565b61085c610f53565b506001546040516370a0823160e01b81523060048201526000916001600160a01b0316906370a0823190602401602060405180830381865afa1580156108a6573d6000803e3d6000fd5b505050506040513d601f19601f820116820180604052508101906108ca9190611344565b1115610548576001546000906001600160a01b031663a9059cbb6108f66000546001600160a01b031690565b6001546040516370a0823160e01b81523060048201526001600160a01b03909116906370a0823190602401602060405180830381865afa15801561093e573d6000803e3d6000fd5b505050506040513d601f19601f820116820180604052508101906109629190611344565b6040516001600160e01b031960e085901b1681526001600160a01b03909216600483015260248201526044016020604051808303816000875af11580156109ad573d6000803e3d6000fd5b505050506040513d601f19601f820116820180604052508101906109d1919061135d565b905080610a205760405162461bcd60e51b815260206004820152601e60248201527f436f696e466c69703a204c696e6b207769746864726177206661696c65640000604482015260640161051f565b50565b60003411610a3057600080fd5b3460026000828254610a429190611331565b90915550506002546040805133815234602082015280820192909252517f719a678c6170368d3e08a7171825b667d9f9b32520826d4fab3af939fef66e429181900360600190a1565b3380610ae55760405162461bcd60e51b8152602060048201526024808201527f436f696e466c69703a2054686973206164647265737320646f65736e277420656044820152631e1a5cdd60e21b606482015260840161051f565b6001600160a01b038116600090815260036020526040902054610b4a5760405162461bcd60e51b815260206004820152601d60248201527f436f696e466c69703a204e6f2066756e6420746f207769746864726177000000604482015260640161051f565b6001600160a01b03811660009081526003602081905260409091200154600160a01b900460ff1615610bb65760405162461bcd60e51b8152602060048201526015602482015274436f696e466c69703a20426574206f6e676f696e6760581b604482015260640161051f565b6001600160a01b038116600090815260036020908152604091829020548251808401909352600d83526c39b7b6b290333ab731ba34b7b760991b9183019190915290610c03908290610ffd565b6040516001600160a01b0383169082156108fc029083906000818181858888f19350505050158015610c39573d6000803e3d6000fd5b506001600160a01b03821660008181526003602081815260408084208481556001810185905560028101949094559290910180546001600160a81b0319169055815192835282018390527f7fcf532c15f0a6db0bd6d0e038bea71d30d808c7d98cb3bf7268a95bf5081b65910160405180910390a15050565b6040516305d3b1d360e41b81527f0000000000000000000000000000000000000000000000000000000000000000600482015267ffffffffffffffff7f000000000000000000000000000000000000000000000000000000000000000016602482015260036044820152620186a06064820152600260848201526000907f00000000000000000000000000000000000000000000000000000000000000006001600160a01b031690635d3b1d309060a4016020604051808303816000875af1158015610d82573d6000803e3d6000fd5b505050506040513d601f19601f82011682018060405250810190610da69190611344565b905090565b610db3610e21565b6001600160a01b038116610e185760405162461bcd60e51b815260206004820152602660248201527f4f776e61626c653a206e6577206f776e657220697320746865207a65726f206160448201526564647265737360d01b606482015260840161051f565b610a2081610f03565b6000546001600160a01b031633146105485760405162461bcd60e51b815260206004820181905260248201527f4f776e61626c653a2063616c6c6572206973206e6f7420746865206f776e6572604482015260640161051f565b6000600282600081518110610e9257610e9261137f565b6020026020010151610ea49190611395565b60008481526004602052604090206001018190559050610ec48184611042565b5060408051848152602081018390527f950c41a5e739a3e2fc2411de52a5b8ae053a697c52eab361a5e90e095fda638e910160405180910390a1505050565b600080546001600160a01b038381166001600160a01b0319831681178455604051919092169283917f8be0079c531659141344cd1fd0a4f28419497f9722a3daafe3b4186f6b6457e09190a35050565b6000600254600003610fa75760405162461bcd60e51b815260206004820152601e60248201527f436f696e466c69703a204e6f2066756e647320746f2077697468647261770000604482015260640161051f565b600060025547610fbf6000546001600160a01b031690565b6001600160a01b03166108fc829081150290604051600060405180830381858888f19350505050158015610ff7573d6000803e3d6000fd5b50919050565b61053282826040516024016110139291906113a9565b60408051601f198184030181529190526020810180516001600160e01b031663643fd0df60e01b1790526111a7565b60008181526004602090815260408083206002908101546001600160a01b03168085526003909352908320015482908190869003611101576001600160a01b03831660009081526003602052604090206001908101549092506110a69060026113ff565b6001600160a01b0384166000908152600360205260409020549091506110cd908290611331565b6001600160a01b038416600090815260036020526040812091909155600280548392906110fb908490611416565b90915550505b604080518315158152602081018390526001600160a01b038516917f883f4d0c1f1f46295aca1500eb9887530d302925a814aa0a107fc8ca8b77971d910160405180910390a2506001600160a01b03909116600090815260036020818152604080842060018082018690559301805460ff60a01b19169055868452600490915282208281559081019190915560020180546001600160a01b031916905590505b92915050565b80516a636f6e736f6c652e6c6f67602083016000808483855afa5050505050565b6000602082840312156111da57600080fd5b81356001600160a01b03811681146111f157600080fd5b9392505050565b634e487b7160e01b600052604160045260246000fd5b6000806040838503121561122157600080fd5b8235915060208084013567ffffffffffffffff8082111561124157600080fd5b818601915086601f83011261125557600080fd5b813581811115611267576112676111f8565b8060051b604051601f19603f8301168101818110858211171561128c5761128c6111f8565b6040529182528482019250838101850191898311156112aa57600080fd5b938501935b828510156112c8578435845293850193928501926112af565b8096505050505050509250929050565b6000602082840312156112ea57600080fd5b5035919050565b634e487b7160e01b600052601260045260246000fd5b634e487b7160e01b600052601160045260246000fd5b60008261132c5761132c6112f1565b500490565b808201808211156111a1576111a1611307565b60006020828403121561135657600080fd5b5051919050565b60006020828403121561136f57600080fd5b815180151581146111f157600080fd5b634e487b7160e01b600052603260045260246000fd5b6000826113a4576113a46112f1565b500690565b82815260006020604081840152835180604085015260005b818110156113dd578581018301518582016060015282016113c1565b506000606082860101526060601f19601f830116850101925050509392505050565b80820281158282048414176111a1576111a1611307565b818103818111156111a1576111a161130756fea2646970667358221220262d9d41a2631577bbc124915feaf7514f89a23e0e589b6cafcaa3733a56a5c264736f6c63430008130033",
  "linkReferences": {},
  "deployedLinkReferences": {}
}