{
  "_format": "hh-sol-artifact-1",
  "contractName": "NFT",
  "sourceName": "contracts/NFT.sol",
  "abi": [
    {
      "inputs": [
        {
          "internalType": "string",
          "name": "name",
          "type": "string"
        },
        {
          "internalType": "string",
          "name": "symbol",
          "type": "string"
        },
        {
          "internalType": "address",
          "name": "_marketplaceAddress",
          "type": "address"
        }
      ],
      "stateMutability": "nonpayable",
      "type": "constructor"
    },
    {
      "inputs": [
        {
          "internalType": "address",
          "name": "sender",
          "type": "address"
        },
        {
          "internalType": "uint256",
          "name": "tokenId",
          "type": "uint256"
        },
        {
          "internalType": "address",
          "name": "owner",
          "type": "address"
        }
      ],
      "name": "ERC721IncorrectOwner",
      "type": "error"
    },
    {
      "inputs": [
        {
          "internalType": "address",
          "name": "operator",
          "type": "address"
        },
        {
          "internalType": "uint256",
          "name": "tokenId",
          "type": "uint256"
        }
      ],
      "name": "ERC721InsufficientApproval",
      "type": "error"
    },
    {
      "inputs": [
        {
          "internalType": "address",
          "name": "approver",
          "type": "address"
        }
      ],
      "name": "ERC721InvalidApprover",
      "type": "error"
    },
    {
      "inputs": [
        {
          "internalType": "address",
          "name": "operator",
          "type": "address"
        }
      ],
      "name": "ERC721InvalidOperator",
      "type": "error"
    },
    {
      "inputs": [
        {
          "internalType": "address",
          "name": "owner",
          "type": "address"
        }
      ],
      "name": "ERC721InvalidOwner",
      "type": "error"
    },
    {
      "inputs": [
        {
          "internalType": "address",
          "name": "receiver",
          "type": "address"
        }
      ],
      "name": "ERC721InvalidReceiver",
      "type": "error"
    },
    {
      "inputs": [
        {
          "internalType": "address",
          "name": "sender",
          "type": "address"
        }
      ],
      "name": "ERC721InvalidSender",
      "type": "error"
    },
    {
      "inputs": [
        {
          "internalType": "uint256",
          "name": "tokenId",
          "type": "uint256"
        }
      ],
      "name": "ERC721NonexistentToken",
      "type": "error"
    },
    {
      "anonymous": false,
      "inputs": [
        {
          "indexed": true,
          "internalType": "address",
          "name": "owner",
          "type": "address"
        },
        {
          "indexed": true,
          "internalType": "address",
          "name": "approved",
          "type": "address"
        },
        {
          "indexed": true,
          "internalType": "uint256",
          "name": "tokenId",
          "type": "uint256"
        }
      ],
      "name": "Approval",
      "type": "event"
    },
    {
      "anonymous": false,
      "inputs": [
        {
          "indexed": true,
          "internalType": "address",
          "name": "owner",
          "type": "address"
        },
        {
          "indexed": true,
          "internalType": "address",
          "name": "operator",
          "type": "address"
        },
        {
          "indexed": false,
          "internalType": "bool",
          "name": "approved",
          "type": "bool"
        }
      ],
      "name": "ApprovalForAll",
      "type": "event"
    },
    {
      "anonymous": false,
      "inputs": [
        {
          "indexed": false,
          "internalType": "uint256",
          "name": "_fromTokenId",
          "type": "uint256"
        },
        {
          "indexed": false,
          "internalType": "uint256",
          "name": "_toTokenId",
          "type": "uint256"
        }
      ],
      "name": "BatchMetadataUpdate",
      "type": "event"
    },
    {
      "anonymous": false,
      "inputs": [
        {
          "indexed": false,
          "internalType": "uint256",
          "name": "_tokenId",
          "type": "uint256"
        }
      ],
      "name": "MetadataUpdate",
      "type": "event"
    },
    {
      "anonymous": false,
      "inputs": [
        {
          "indexed": true,
          "internalType": "uint256",
          "name": "tokenId",
          "type": "uint256"
        },
        {
          "indexed": false,
          "internalType": "string",
          "name": "tokenURI",
          "type": "string"
        },
        {
          "indexed": false,
          "internalType": "address",
          "name": "owner",
          "type": "address"
        }
      ],
      "name": "TokenMinted",
      "type": "event"
    },
    {
      "anonymous": false,
      "inputs": [
        {
          "indexed": true,
          "internalType": "address",
          "name": "from",
          "type": "address"
        },
        {
          "indexed": true,
          "internalType": "address",
          "name": "to",
          "type": "address"
        },
        {
          "indexed": true,
          "internalType": "uint256",
          "name": "tokenId",
          "type": "uint256"
        }
      ],
      "name": "Transfer",
      "type": "event"
    },
    {
      "inputs": [
        {
          "internalType": "address",
          "name": "to",
          "type": "address"
        },
        {
          "internalType": "uint256",
          "name": "tokenId",
          "type": "uint256"
        }
      ],
      "name": "approve",
      "outputs": [],
      "stateMutability": "nonpayable",
      "type": "function"
    },
    {
      "inputs": [
        {
          "internalType": "address",
          "name": "owner",
          "type": "address"
        }
      ],
      "name": "balanceOf",
      "outputs": [
        {
          "internalType": "uint256",
          "name": "",
          "type": "uint256"
        }
      ],
      "stateMutability": "view",
      "type": "function"
    },
    {
      "inputs": [
        {
          "internalType": "uint256",
          "name": "tokenId",
          "type": "uint256"
        }
      ],
      "name": "getApproved",
      "outputs": [
        {
          "internalType": "address",
          "name": "",
          "type": "address"
        }
      ],
      "stateMutability": "view",
      "type": "function"
    },
    {
      "inputs": [
        {
          "internalType": "uint256",
          "name": "tokenId",
          "type": "uint256"
        }
      ],
      "name": "getTokenCreatorById",
      "outputs": [
        {
          "internalType": "address",
          "name": "",
          "type": "address"
        }
      ],
      "stateMutability": "view",
      "type": "function"
    },
    {
      "inputs": [],
      "name": "getTokensCreatedByMe",
      "outputs": [
        {
          "internalType": "uint256[]",
          "name": "",
          "type": "uint256[]"
        }
      ],
      "stateMutability": "view",
      "type": "function"
    },
    {
      "inputs": [
        {
          "internalType": "address",
          "name": "owner",
          "type": "address"
        },
        {
          "internalType": "address",
          "name": "operator",
          "type": "address"
        }
      ],
      "name": "isApprovedForAll",
      "outputs": [
        {
          "internalType": "bool",
          "name": "",
          "type": "bool"
        }
      ],
      "stateMutability": "view",
      "type": "function"
    },
    {
      "inputs": [],
      "name": "name",
      "outputs": [
        {
          "internalType": "string",
          "name": "",
          "type": "string"
        }
      ],
      "stateMutability": "view",
      "type": "function"
    },
    {
      "inputs": [
        {
          "internalType": "uint256",
          "name": "tokenId",
          "type": "uint256"
        }
      ],
      "name": "ownerOf",
      "outputs": [
        {
          "internalType": "address",
          "name": "",
          "type": "address"
        }
      ],
      "stateMutability": "view",
      "type": "function"
    },
    {
      "inputs": [
        {
          "internalType": "string",
          "name": "uri",
          "type": "string"
        }
      ],
      "name": "safeMint",
      "outputs": [],
      "stateMutability": "nonpayable",
      "type": "function"
    },
    {
      "inputs": [
        {
          "internalType": "address",
          "name": "from",
          "type": "address"
        },
        {
          "internalType": "address",
          "name": "to",
          "type": "address"
        },
        {
          "internalType": "uint256",
          "name": "tokenId",
          "type": "uint256"
        }
      ],
      "name": "safeTransferFrom",
      "outputs": [],
      "stateMutability": "nonpayable",
      "type": "function"
    },
    {
      "inputs": [
        {
          "internalType": "address",
          "name": "from",
          "type": "address"
        },
        {
          "internalType": "address",
          "name": "to",
          "type": "address"
        },
        {
          "internalType": "uint256",
          "name": "tokenId",
          "type": "uint256"
        },
        {
          "internalType": "bytes",
          "name": "data",
          "type": "bytes"
        }
      ],
      "name": "safeTransferFrom",
      "outputs": [],
      "stateMutability": "nonpayable",
      "type": "function"
    },
    {
      "inputs": [
        {
          "internalType": "address",
          "name": "operator",
          "type": "address"
        },
        {
          "internalType": "bool",
          "name": "approved",
          "type": "bool"
        }
      ],
      "name": "setApprovalForAll",
      "outputs": [],
      "stateMutability": "nonpayable",
      "type": "function"
    },
    {
      "inputs": [
        {
          "internalType": "bytes4",
          "name": "interfaceId",
          "type": "bytes4"
        }
      ],
      "name": "supportsInterface",
      "outputs": [
        {
          "internalType": "bool",
          "name": "",
          "type": "bool"
        }
      ],
      "stateMutability": "view",
      "type": "function"
    },
    {
      "inputs": [],
      "name": "symbol",
      "outputs": [
        {
          "internalType": "string",
          "name": "",
          "type": "string"
        }
      ],
      "stateMutability": "view",
      "type": "function"
    },
    {
      "inputs": [
        {
          "internalType": "uint256",
          "name": "tokenId",
          "type": "uint256"
        }
      ],
      "name": "tokenURI",
      "outputs": [
        {
          "internalType": "string",
          "name": "",
          "type": "string"
        }
      ],
      "stateMutability": "view",
      "type": "function"
    },
    {
      "inputs": [
        {
          "internalType": "address",
          "name": "from",
          "type": "address"
        },
        {
          "internalType": "address",
          "name": "to",
          "type": "address"
        },
        {
          "internalType": "uint256",
          "name": "tokenId",
          "type": "uint256"
        }
      ],
      "name": "transferFrom",
      "outputs": [],
      "stateMutability": "nonpayable",
      "type": "function"
    }
  ],
  "bytecode": "0x60806040523480156200001157600080fd5b5060405162001a6c38038062001a6c83398101604081905262000034916200017f565b828260006200004483826200029b565b5060016200005382826200029b565b5050604080518082019091526007815266697066733a2f2f60c81b60208201526200007f9150620000a8565b600980546001600160a01b0319166001600160a01b039290921691909117905550620003679050565b6008620000b682826200029b565b5050565b634e487b7160e01b600052604160045260246000fd5b600082601f830112620000e257600080fd5b81516001600160401b0380821115620000ff57620000ff620000ba565b604051601f8301601f19908116603f011681019082821181831017156200012a576200012a620000ba565b816040528381526020925086838588010111156200014757600080fd5b600091505b838210156200016b57858201830151818301840152908201906200014c565b600093810190920192909252949350505050565b6000806000606084860312156200019557600080fd5b83516001600160401b0380821115620001ad57600080fd5b620001bb87838801620000d0565b94506020860151915080821115620001d257600080fd5b50620001e186828701620000d0565b604086015190935090506001600160a01b03811681146200020157600080fd5b809150509250925092565b600181811c908216806200022157607f821691505b6020821081036200024257634e487b7160e01b600052602260045260246000fd5b50919050565b601f8211156200029657600081815260208120601f850160051c81016020861015620002715750805b601f850160051c820191505b8181101562000292578281556001016200027d565b5050505b505050565b81516001600160401b03811115620002b757620002b7620000ba565b620002cf81620002c884546200020c565b8462000248565b602080601f831160018114620003075760008415620002ee5750858301515b600019600386901b1c1916600185901b17855562000292565b600085815260208120601f198616915b82811015620003385788860151825594840194600190910190840162000317565b5085821015620003575787850151600019600388901b60f8161c191681555b5050505050600190811b01905550565b6116f580620003776000396000f3fe608060405234801561001057600080fd5b50600436106101005760003560e01c8063695850fb11610097578063a22cb46511610066578063a22cb46514610235578063b88d4fde14610248578063c87b56dd1461025b578063e985e9c51461026e57600080fd5b8063695850fb146101d057806370a08231146101e3578063867d33971461020457806395d89b411461022d57600080fd5b806323b872dd116100d357806323b872dd1461018257806342842e0e146101955780635ba37742146101a85780636352211e146101bd57600080fd5b806301ffc9a71461010557806306fdde031461012d578063081812fc14610142578063095ea7b31461016d575b600080fd5b61011861011336600461111f565b610281565b60405190151581526020015b60405180910390f35b610135610292565b604051610124919061118c565b61015561015036600461119f565b610324565b6040516001600160a01b039091168152602001610124565b61018061017b3660046111d4565b61034b565b005b6101806101903660046111fe565b6103e9565b6101806101a33660046111fe565b610424565b6101b061043f565b604051610124919061123a565b6101556101cb36600461119f565b610577565b6101806101de36600461130a565b6105b0565b6101f66101f1366004611353565b610663565b604051908152602001610124565b61015561021236600461119f565b6000908152600a60205260409020546001600160a01b031690565b6101356106ab565b61018061024336600461136e565b6106ba565b6101806102563660046113aa565b6106c9565b61013561026936600461119f565b61070b565b61011861027c366004611426565b610716565b600061028c82610744565b92915050565b6060600080546102a190611459565b80601f01602080910402602001604051908101604052809291908181526020018280546102cd90611459565b801561031a5780601f106102ef5761010080835404028352916020019161031a565b820191906000526020600020905b8154815290600101906020018083116102fd57829003601f168201915b5050505050905090565b600061032f82610769565b506000908152600460205260409020546001600160a01b031690565b600061035682610577565b9050806001600160a01b0316836001600160a01b03160361039a57604051630b61174360e31b81526001600160a01b03821660048201526024015b60405180910390fd5b336001600160a01b038216148015906103ba57506103b88133610716565b155b156103da5760405163a9fbf51f60e01b8152336004820152602401610391565b6103e483836107a4565b505050565b6103f33382610812565b6104195760405163177e802f60e01b815233600482015260248101829052604401610391565b6103e4838383610871565b6103e4838383604051806020016040528060008152506106c9565b6007546060906000805b828110156104a657600061045e8260016114a9565b6000818152600a60205260409020549091506001600160a01b031633146104855750610494565b6104906001846114a9565b9250505b8061049e816114bc565b915050610449565b5060008167ffffffffffffffff8111156104c2576104c261127e565b6040519080825280602002602001820160405280156104eb578160200160208202803683370190505b5090506000805b8481101561056d5760006105078260016114a9565b6000818152600a60205260409020549091506001600160a01b0316331461052e575061055b565b80848481518110610541576105416114d5565b60209081029190910101526105576001846114a9565b9250505b80610565816114bc565b9150506104f2565b5090949350505050565b6000818152600260205260408120546001600160a01b03168061028c57604051637e27328960e01b815260048101849052602401610391565b60006001600760008282546105c591906114a9565b92505081905590506105d733826109ff565b6105e18183610a19565b6000818152600a6020526040902080546001600160a01b03191633179055600954610616906001600160a01b031660016106ba565b60095460405182917f9ef9d09a98563c827f651a028105395cc17f94ef23eb26b70d241439386a62f4916106579186916001600160a01b03909116906114eb565b60405180910390a25050565b60006001600160a01b03821661068f576040516322718ad960e21b815260006004820152602401610391565b506001600160a01b031660009081526003602052604090205490565b6060600180546102a190611459565b6106c5338383610aa1565b5050565b6106d33383610812565b6106f95760405163177e802f60e01b815233600482015260248101839052604401610391565b61070584848484610b4b565b50505050565b606061028c82610b8a565b6001600160a01b03918216600090815260056020908152604080832093909416825291909152205460ff1690565b60006001600160e01b03198216632483248360e11b148061028c575061028c82610c85565b6000818152600260205260409020546001600160a01b03166107a157604051637e27328960e01b815260048101829052602401610391565b50565b600081815260046020526040902080546001600160a01b0319166001600160a01b03841690811790915581906107d982610577565b6001600160a01b03167f8c5be1e5ebec7d5bd14f71427d1e84f3dd0314c0f7b2291e5b200ac8c7c3b92560405160405180910390a45050565b60008061081e83610577565b9050806001600160a01b0316846001600160a01b0316148061084557506108458185610716565b806108695750836001600160a01b031661085e84610324565b6001600160a01b0316145b949350505050565b600061087c82610577565b9050836001600160a01b0316816001600160a01b0316146108ca576040516364283d7b60e01b81526001600160a01b0380861660048301526024820184905282166044820152606401610391565b6001600160a01b0383166108f457604051633250574960e11b815260006004820152602401610391565b6108fd82610577565b9050836001600160a01b0316816001600160a01b03161461094b576040516364283d7b60e01b81526001600160a01b0380861660048301526024820184905282166044820152606401610391565b600082815260046020908152604080832080546001600160a01b03191690556001600160a01b03871683526003909152812080546001929061098e908490611515565b90915550506001600160a01b03808416600081815260036020908152604080832080546001019055868352600290915280822080546001600160a01b031916841790555185938816917fddf252ad1be2c89b69c2b068fc378daa952ba7f163c4a11628f55a4df523b3ef91a4610705565b6106c5828260405180602001604052806000815250610cd5565b6000828152600260205260409020546001600160a01b0316610a5157604051637e27328960e01b815260048101839052602401610391565b6000828152600660205260409020610a698282611576565b506040518281527ff8e1a15aba9398e019f0b49df1a4fde98ee17ae345cb5f6b5e2c27f5033e8ce79060200160405180910390a15050565b816001600160a01b0316836001600160a01b031603610ade57604051630b61174360e31b81526001600160a01b0384166004820152602401610391565b6001600160a01b03838116600081815260056020908152604080832094871680845294825291829020805460ff191686151590811790915591519182527f17307eab39ab6107e8899845ad3d59bd9653f200f220920489ca2b5937696c31910160405180910390a3505050565b610b56848484610871565b610b6284848484610d14565b61070557604051633250574960e11b81526001600160a01b0384166004820152602401610391565b6060610b9582610769565b60008281526006602052604081208054610bae90611459565b80601f0160208091040260200160405190810160405280929190818152602001828054610bda90611459565b8015610c275780601f10610bfc57610100808354040283529160200191610c27565b820191906000526020600020905b815481529060010190602001808311610c0a57829003601f168201915b505050505090506000610c38610e21565b90508051600003610c4a575092915050565b815115610c7c578082604051602001610c64929190611636565b60405160208183030381529060405292505050919050565b61086984610e30565b60006001600160e01b031982166380ac58cd60e01b1480610cb657506001600160e01b03198216635b5e139f60e01b145b8061028c57506301ffc9a760e01b6001600160e01b031983161461028c565b610cdf8383610e97565b610cec6000848484610d14565b6103e457604051633250574960e11b81526001600160a01b0384166004820152602401610391565b60006001600160a01b0384163b15610e1657604051630a85bd0160e11b81526001600160a01b0385169063150b7a0290610d58903390899088908890600401611665565b6020604051808303816000875af1925050508015610d93575060408051601f3d908101601f19168201909252610d90918101906116a2565b60015b610dfc573d808015610dc1576040519150601f19603f3d011682016040523d82523d6000602084013e610dc6565b606091505b508051600003610df457604051633250574960e11b81526001600160a01b0386166004820152602401610391565b805181602001fd5b6001600160e01b031916630a85bd0160e11b149050610869565b506001949350505050565b6060600880546102a190611459565b6060610e3b82610769565b6000610e45610e21565b90506000815111610e655760405180602001604052806000815250610e90565b80610e6f84610f9e565b604051602001610e80929190611636565b6040516020818303038152906040525b9392505050565b6001600160a01b038216610ec157604051633250574960e11b815260006004820152602401610391565b6000818152600260205260409020546001600160a01b031615610efa576040516339e3563760e11b815260006004820152602401610391565b6000818152600260205260409020546001600160a01b031615610f33576040516339e3563760e11b815260006004820152602401610391565b6001600160a01b038216600081815260036020908152604080832080546001019055848352600290915280822080546001600160a01b0319168417905551839291907fddf252ad1be2c89b69c2b068fc378daa952ba7f163c4a11628f55a4df523b3ef908290a45050565b60606000610fab83611031565b600101905060008167ffffffffffffffff811115610fcb57610fcb61127e565b6040519080825280601f01601f191660200182016040528015610ff5576020820181803683370190505b5090508181016020015b600019016f181899199a1a9b1b9c1cb0b131b232b360811b600a86061a8153600a8504945084610fff57509392505050565b60008072184f03e93ff9f4daa797ed6e38ed64bf6a1f0160401b83106110705772184f03e93ff9f4daa797ed6e38ed64bf6a1f0160401b830492506040015b6d04ee2d6d415b85acef8100000000831061109c576d04ee2d6d415b85acef8100000000830492506020015b662386f26fc1000083106110ba57662386f26fc10000830492506010015b6305f5e10083106110d2576305f5e100830492506008015b61271083106110e657612710830492506004015b606483106110f8576064830492506002015b600a831061028c5760010192915050565b6001600160e01b0319811681146107a157600080fd5b60006020828403121561113157600080fd5b8135610e9081611109565b60005b8381101561115757818101518382015260200161113f565b50506000910152565b6000815180845261117881602086016020860161113c565b601f01601f19169290920160200192915050565b602081526000610e906020830184611160565b6000602082840312156111b157600080fd5b5035919050565b80356001600160a01b03811681146111cf57600080fd5b919050565b600080604083850312156111e757600080fd5b6111f0836111b8565b946020939093013593505050565b60008060006060848603121561121357600080fd5b61121c846111b8565b925061122a602085016111b8565b9150604084013590509250925092565b6020808252825182820181905260009190848201906040850190845b8181101561127257835183529284019291840191600101611256565b50909695505050505050565b634e487b7160e01b600052604160045260246000fd5b600067ffffffffffffffff808411156112af576112af61127e565b604051601f8501601f19908116603f011681019082821181831017156112d7576112d761127e565b816040528093508581528686860111156112f057600080fd5b858560208301376000602087830101525050509392505050565b60006020828403121561131c57600080fd5b813567ffffffffffffffff81111561133357600080fd5b8201601f8101841361134457600080fd5b61086984823560208401611294565b60006020828403121561136557600080fd5b610e90826111b8565b6000806040838503121561138157600080fd5b61138a836111b8565b91506020830135801515811461139f57600080fd5b809150509250929050565b600080600080608085870312156113c057600080fd5b6113c9856111b8565b93506113d7602086016111b8565b925060408501359150606085013567ffffffffffffffff8111156113fa57600080fd5b8501601f8101871361140b57600080fd5b61141a87823560208401611294565b91505092959194509250565b6000806040838503121561143957600080fd5b611442836111b8565b9150611450602084016111b8565b90509250929050565b600181811c9082168061146d57607f821691505b60208210810361148d57634e487b7160e01b600052602260045260246000fd5b50919050565b634e487b7160e01b600052601160045260246000fd5b8082018082111561028c5761028c611493565b6000600182016114ce576114ce611493565b5060010190565b634e487b7160e01b600052603260045260246000fd5b6040815260006114fe6040830185611160565b905060018060a01b03831660208301529392505050565b8181038181111561028c5761028c611493565b601f8211156103e457600081815260208120601f850160051c8101602086101561154f5750805b601f850160051c820191505b8181101561156e5782815560010161155b565b505050505050565b815167ffffffffffffffff8111156115905761159061127e565b6115a48161159e8454611459565b84611528565b602080601f8311600181146115d957600084156115c15750858301515b600019600386901b1c1916600185901b17855561156e565b600085815260208120601f198616915b82811015611608578886015182559484019460019091019084016115e9565b50858210156116265787850151600019600388901b60f8161c191681555b5050505050600190811b01905550565b6000835161164881846020880161113c565b83519083019061165c81836020880161113c565b01949350505050565b6001600160a01b038581168252841660208201526040810183905260806060820181905260009061169890830184611160565b9695505050505050565b6000602082840312156116b457600080fd5b8151610e908161110956fea2646970667358221220614ef2bf8932077cfeee455e2c50a291e94464d2fb4f7293032a8683fef4c09064736f6c63430008130033",
  "linkReferences": {},
  "deployedLinkReferences": {}
}