{
  "_format": "hh-sol-artifact-1",
  "contractName": "NFTMarketplace",
  "sourceName": "contracts/MarketPlace.sol",
  "abi": [
    {
      "inputs": [
        {
          "internalType": "string",
          "name": "name",
          "type": "string"
        },
        {
          "internalType": "string",
          "name": "symbol",
          "type": "string"
        }
      ],
      "stateMutability": "nonpayable",
      "type": "constructor"
    },
    {
      "inputs": [
        {
          "internalType": "address",
          "name": "sender",
          "type": "address"
        },
        {
          "internalType": "uint256",
          "name": "tokenId",
          "type": "uint256"
        },
        {
          "internalType": "address",
          "name": "owner",
          "type": "address"
        }
      ],
      "name": "ERC721IncorrectOwner",
      "type": "error"
    },
    {
      "inputs": [
        {
          "internalType": "address",
          "name": "operator",
          "type": "address"
        },
        {
          "internalType": "uint256",
          "name": "tokenId",
          "type": "uint256"
        }
      ],
      "name": "ERC721InsufficientApproval",
      "type": "error"
    },
    {
      "inputs": [
        {
          "internalType": "address",
          "name": "approver",
          "type": "address"
        }
      ],
      "name": "ERC721InvalidApprover",
      "type": "error"
    },
    {
      "inputs": [
        {
          "internalType": "address",
          "name": "operator",
          "type": "address"
        }
      ],
      "name": "ERC721InvalidOperator",
      "type": "error"
    },
    {
      "inputs": [
        {
          "internalType": "address",
          "name": "owner",
          "type": "address"
        }
      ],
      "name": "ERC721InvalidOwner",
      "type": "error"
    },
    {
      "inputs": [
        {
          "internalType": "address",
          "name": "receiver",
          "type": "address"
        }
      ],
      "name": "ERC721InvalidReceiver",
      "type": "error"
    },
    {
      "inputs": [
        {
          "internalType": "address",
          "name": "sender",
          "type": "address"
        }
      ],
      "name": "ERC721InvalidSender",
      "type": "error"
    },
    {
      "inputs": [
        {
          "internalType": "uint256",
          "name": "tokenId",
          "type": "uint256"
        }
      ],
      "name": "ERC721NonexistentToken",
      "type": "error"
    },
    {
      "inputs": [],
      "name": "ReentrancyGuardReentrantCall",
      "type": "error"
    },
    {
      "anonymous": false,
      "inputs": [
        {
          "indexed": true,
          "internalType": "address",
          "name": "owner",
          "type": "address"
        },
        {
          "indexed": true,
          "internalType": "address",
          "name": "approved",
          "type": "address"
        },
        {
          "indexed": true,
          "internalType": "uint256",
          "name": "tokenId",
          "type": "uint256"
        }
      ],
      "name": "Approval",
      "type": "event"
    },
    {
      "anonymous": false,
      "inputs": [
        {
          "indexed": true,
          "internalType": "address",
          "name": "owner",
          "type": "address"
        },
        {
          "indexed": true,
          "internalType": "address",
          "name": "operator",
          "type": "address"
        },
        {
          "indexed": false,
          "internalType": "bool",
          "name": "approved",
          "type": "bool"
        }
      ],
      "name": "ApprovalForAll",
      "type": "event"
    },
    {
      "anonymous": false,
      "inputs": [
        {
          "indexed": false,
          "internalType": "uint256",
          "name": "_fromTokenId",
          "type": "uint256"
        },
        {
          "indexed": false,
          "internalType": "uint256",
          "name": "_toTokenId",
          "type": "uint256"
        }
      ],
      "name": "BatchMetadataUpdate",
      "type": "event"
    },
    {
      "anonymous": false,
      "inputs": [
        {
          "indexed": true,
          "internalType": "uint256",
          "name": "tokenId",
          "type": "uint256"
        },
        {
          "indexed": false,
          "internalType": "address",
          "name": "seller",
          "type": "address"
        },
        {
          "indexed": false,
          "internalType": "address",
          "name": "owner",
          "type": "address"
        },
        {
          "indexed": false,
          "internalType": "uint256",
          "name": "price",
          "type": "uint256"
        },
        {
          "indexed": false,
          "internalType": "bool",
          "name": "sold",
          "type": "bool"
        },
        {
          "indexed": false,
          "internalType": "bool",
          "name": "canceled",
          "type": "bool"
        }
      ],
      "name": "MarketItemCreated",
      "type": "event"
    },
    {
      "anonymous": false,
      "inputs": [
        {
          "indexed": false,
          "internalType": "uint256",
          "name": "_tokenId",
          "type": "uint256"
        }
      ],
      "name": "MetadataUpdate",
      "type": "event"
    },
    {
      "anonymous": false,
      "inputs": [
        {
          "indexed": true,
          "internalType": "address",
          "name": "from",
          "type": "address"
        },
        {
          "indexed": true,
          "internalType": "address",
          "name": "to",
          "type": "address"
        },
        {
          "indexed": true,
          "internalType": "uint256",
          "name": "tokenId",
          "type": "uint256"
        }
      ],
      "name": "Transfer",
      "type": "event"
    },
    {
      "inputs": [
        {
          "internalType": "address",
          "name": "to",
          "type": "address"
        },
        {
          "internalType": "uint256",
          "name": "tokenId",
          "type": "uint256"
        }
      ],
      "name": "approve",
      "outputs": [],
      "stateMutability": "nonpayable",
      "type": "function"
    },
    {
      "inputs": [
        {
          "internalType": "address",
          "name": "owner",
          "type": "address"
        }
      ],
      "name": "balanceOf",
      "outputs": [
        {
          "internalType": "uint256",
          "name": "",
          "type": "uint256"
        }
      ],
      "stateMutability": "view",
      "type": "function"
    },
    {
      "inputs": [
        {
          "internalType": "uint256",
          "name": "marketItemId",
          "type": "uint256"
        }
      ],
      "name": "cancelMarketItem",
      "outputs": [],
      "stateMutability": "payable",
      "type": "function"
    },
    {
      "inputs": [
        {
          "internalType": "uint256",
          "name": "tokenId",
          "type": "uint256"
        }
      ],
      "name": "createMarketSale",
      "outputs": [],
      "stateMutability": "payable",
      "type": "function"
    },
    {
      "inputs": [
        {
          "internalType": "uint256",
          "name": "tokenId",
          "type": "uint256"
        },
        {
          "internalType": "uint256",
          "name": "price",
          "type": "uint256"
        }
      ],
      "name": "createMintedToken",
      "outputs": [
        {
          "internalType": "uint256",
          "name": "",
          "type": "uint256"
        }
      ],
      "stateMutability": "payable",
      "type": "function"
    },
    {
      "inputs": [
        {
          "internalType": "string",
          "name": "tokenURI",
          "type": "string"
        },
        {
          "internalType": "uint256",
          "name": "price",
          "type": "uint256"
        }
      ],
      "name": "createToken",
      "outputs": [
        {
          "internalType": "uint256",
          "name": "",
          "type": "uint256"
        }
      ],
      "stateMutability": "payable",
      "type": "function"
    },
    {
      "inputs": [],
      "name": "fetchItemsListed",
      "outputs": [
        {
          "components": [
            {
              "internalType": "uint256",
              "name": "tokenId",
              "type": "uint256"
            },
            {
              "internalType": "address payable",
              "name": "seller",
              "type": "address"
            },
            {
              "internalType": "address payable",
              "name": "owner",
              "type": "address"
            },
            {
              "internalType": "uint256",
              "name": "price",
              "type": "uint256"
            },
            {
              "internalType": "bool",
              "name": "sold",
              "type": "bool"
            },
            {
              "internalType": "bool",
              "name": "canceled",
              "type": "bool"
            }
          ],
          "internalType": "struct NFTMarketplace.MarketItem[]",
          "name": "",
          "type": "tuple[]"
        }
      ],
      "stateMutability": "view",
      "type": "function"
    },
    {
      "inputs": [],
      "name": "fetchMarketItems",
      "outputs": [
        {
          "components": [
            {
              "internalType": "uint256",
              "name": "tokenId",
              "type": "uint256"
            },
            {
              "internalType": "address payable",
              "name": "seller",
              "type": "address"
            },
            {
              "internalType": "address payable",
              "name": "owner",
              "type": "address"
            },
            {
              "internalType": "uint256",
              "name": "price",
              "type": "uint256"
            },
            {
              "internalType": "bool",
              "name": "sold",
              "type": "bool"
            },
            {
              "internalType": "bool",
              "name": "canceled",
              "type": "bool"
            }
          ],
          "internalType": "struct NFTMarketplace.MarketItem[]",
          "name": "",
          "type": "tuple[]"
        }
      ],
      "stateMutability": "view",
      "type": "function"
    },
    {
      "inputs": [],
      "name": "fetchMyNFTs",
      "outputs": [
        {
          "components": [
            {
              "internalType": "uint256",
              "name": "tokenId",
              "type": "uint256"
            },
            {
              "internalType": "address payable",
              "name": "seller",
              "type": "address"
            },
            {
              "internalType": "address payable",
              "name": "owner",
              "type": "address"
            },
            {
              "internalType": "uint256",
              "name": "price",
              "type": "uint256"
            },
            {
              "internalType": "bool",
              "name": "sold",
              "type": "bool"
            },
            {
              "internalType": "bool",
              "name": "canceled",
              "type": "bool"
            }
          ],
          "internalType": "struct NFTMarketplace.MarketItem[]",
          "name": "",
          "type": "tuple[]"
        }
      ],
      "stateMutability": "view",
      "type": "function"
    },
    {
      "inputs": [
        {
          "internalType": "uint256",
          "name": "tokenId",
          "type": "uint256"
        }
      ],
      "name": "getApproved",
      "outputs": [
        {
          "internalType": "address",
          "name": "",
          "type": "address"
        }
      ],
      "stateMutability": "view",
      "type": "function"
    },
    {
      "inputs": [
        {
          "internalType": "uint256",
          "name": "tokenId",
          "type": "uint256"
        }
      ],
      "name": "getLatestMarketItemByTokenId",
      "outputs": [
        {
          "components": [
            {
              "internalType": "uint256",
              "name": "tokenId",
              "type": "uint256"
            },
            {
              "internalType": "address payable",
              "name": "seller",
              "type": "address"
            },
            {
              "internalType": "address payable",
              "name": "owner",
              "type": "address"
            },
            {
              "internalType": "uint256",
              "name": "price",
              "type": "uint256"
            },
            {
              "internalType": "bool",
              "name": "sold",
              "type": "bool"
            },
            {
              "internalType": "bool",
              "name": "canceled",
              "type": "bool"
            }
          ],
          "internalType": "struct NFTMarketplace.MarketItem",
          "name": "",
          "type": "tuple"
        },
        {
          "internalType": "bool",
          "name": "",
          "type": "bool"
        }
      ],
      "stateMutability": "view",
      "type": "function"
    },
    {
      "inputs": [],
      "name": "getListingPrice",
      "outputs": [
        {
          "internalType": "uint256",
          "name": "",
          "type": "uint256"
        }
      ],
      "stateMutability": "view",
      "type": "function"
    },
    {
      "inputs": [
        {
          "internalType": "address",
          "name": "owner",
          "type": "address"
        },
        {
          "internalType": "address",
          "name": "operator",
          "type": "address"
        }
      ],
      "name": "isApprovedForAll",
      "outputs": [
        {
          "internalType": "bool",
          "name": "",
          "type": "bool"
        }
      ],
      "stateMutability": "view",
      "type": "function"
    },
    {
      "inputs": [],
      "name": "name",
      "outputs": [
        {
          "internalType": "string",
          "name": "",
          "type": "string"
        }
      ],
      "stateMutability": "view",
      "type": "function"
    },
    {
      "inputs": [
        {
          "internalType": "uint256",
          "name": "tokenId",
          "type": "uint256"
        }
      ],
      "name": "ownerOf",
      "outputs": [
        {
          "internalType": "address",
          "name": "",
          "type": "address"
        }
      ],
      "stateMutability": "view",
      "type": "function"
    },
    {
      "inputs": [
        {
          "internalType": "uint256",
          "name": "tokenId",
          "type": "uint256"
        },
        {
          "internalType": "uint256",
          "name": "price",
          "type": "uint256"
        }
      ],
      "name": "resellToken",
      "outputs": [],
      "stateMutability": "payable",
      "type": "function"
    },
    {
      "inputs": [
        {
          "internalType": "address",
          "name": "from",
          "type": "address"
        },
        {
          "internalType": "address",
          "name": "to",
          "type": "address"
        },
        {
          "internalType": "uint256",
          "name": "tokenId",
          "type": "uint256"
        }
      ],
      "name": "safeTransferFrom",
      "outputs": [],
      "stateMutability": "nonpayable",
      "type": "function"
    },
    {
      "inputs": [
        {
          "internalType": "address",
          "name": "from",
          "type": "address"
        },
        {
          "internalType": "address",
          "name": "to",
          "type": "address"
        },
        {
          "internalType": "uint256",
          "name": "tokenId",
          "type": "uint256"
        },
        {
          "internalType": "bytes",
          "name": "data",
          "type": "bytes"
        }
      ],
      "name": "safeTransferFrom",
      "outputs": [],
      "stateMutability": "nonpayable",
      "type": "function"
    },
    {
      "inputs": [
        {
          "internalType": "address",
          "name": "operator",
          "type": "address"
        },
        {
          "internalType": "bool",
          "name": "approved",
          "type": "bool"
        }
      ],
      "name": "setApprovalForAll",
      "outputs": [],
      "stateMutability": "nonpayable",
      "type": "function"
    },
    {
      "inputs": [
        {
          "internalType": "bytes4",
          "name": "interfaceId",
          "type": "bytes4"
        }
      ],
      "name": "supportsInterface",
      "outputs": [
        {
          "internalType": "bool",
          "name": "",
          "type": "bool"
        }
      ],
      "stateMutability": "view",
      "type": "function"
    },
    {
      "inputs": [],
      "name": "symbol",
      "outputs": [
        {
          "internalType": "string",
          "name": "",
          "type": "string"
        }
      ],
      "stateMutability": "view",
      "type": "function"
    },
    {
      "inputs": [
        {
          "internalType": "uint256",
          "name": "tokenId",
          "type": "uint256"
        }
      ],
      "name": "tokenURI",
      "outputs": [
        {
          "internalType": "string",
          "name": "",
          "type": "string"
        }
      ],
      "stateMutability": "view",
      "type": "function"
    },
    {
      "inputs": [
        {
          "internalType": "address",
          "name": "from",
          "type": "address"
        },
        {
          "internalType": "address",
          "name": "to",
          "type": "address"
        },
        {
          "internalType": "uint256",
          "name": "tokenId",
          "type": "uint256"
        }
      ],
      "name": "transferFrom",
      "outputs": [],
      "stateMutability": "nonpayable",
      "type": "function"
    },
    {
      "inputs": [
        {
          "internalType": "uint256",
          "name": "_listingPrice",
          "type": "uint256"
        }
      ],
      "name": "updateListingPrice",
      "outputs": [],
      "stateMutability": "payable",
      "type": "function"
    }
  ],
  "bytecode": "0x60806040526658d15e17628000600b553480156200001c57600080fd5b50604051620026be380380620026be8339810160408190526200003f9162000145565b818160006200004f83826200023e565b5060016200005e82826200023e565b505060016007555050600c80546001600160a01b03191633179055506200030a565b634e487b7160e01b600052604160045260246000fd5b600082601f830112620000a857600080fd5b81516001600160401b0380821115620000c557620000c562000080565b604051601f8301601f19908116603f01168101908282118183101715620000f057620000f062000080565b816040528381526020925086838588010111156200010d57600080fd5b600091505b8382101562000131578582018301518183018401529082019062000112565b600093810190920192909252949350505050565b600080604083850312156200015957600080fd5b82516001600160401b03808211156200017157600080fd5b6200017f8683870162000096565b935060208501519150808211156200019657600080fd5b50620001a58582860162000096565b9150509250929050565b600181811c90821680620001c457607f821691505b602082108103620001e557634e487b7160e01b600052602260045260246000fd5b50919050565b601f8211156200023957600081815260208120601f850160051c81016020861015620002145750805b601f850160051c820191505b81811015620002355782815560010162000220565b5050505b505050565b81516001600160401b038111156200025a576200025a62000080565b62000272816200026b8454620001af565b84620001eb565b602080601f831160018114620002aa5760008415620002915750858301515b600019600386901b1c1916600185901b17855562000235565b600085815260208120601f198616915b82811015620002db57888601518255948401946001909101908401620002ba565b5085821015620002fa5787850151600019600388901b60f8161c191681555b5050505050600190811b01905550565b6123a4806200031a6000396000f3fe60806040526004361061014b5760003560e01c80636f9b4920116100b6578063ae677aa31161006f578063ae677aa314610388578063b88d4fde1461039b578063be9af536146103bb578063c87b56dd146103ce578063e219fc75146103ee578063e985e9c51461040157600080fd5b80636f9b4920146102df57806370a082311461030d57806372b3b6201461032d57806395d89b4114610340578063a22cb46514610355578063a6e22b021461037557600080fd5b8063202e374011610108578063202e37401461024257806323b872dd1461025757806342842e0e1461027757806345f8fa80146102975780635b3aafc6146102ac5780636352211e146102bf57600080fd5b806301ffc9a71461015057806306fdde0314610185578063081812fc146101a7578063095ea7b3146101df5780630f08efe01461020157806312e8558514610223575b600080fd5b34801561015c57600080fd5b5061017061016b366004611cf8565b61044a565b60405190151581526020015b60405180910390f35b34801561019157600080fd5b5061019a610475565b60405161017c9190611d65565b3480156101b357600080fd5b506101c76101c2366004611d78565b610507565b6040516001600160a01b03909116815260200161017c565b3480156101eb57600080fd5b506101ff6101fa366004611dad565b61052e565b005b34801561020d57600080fd5b506102166105cc565b60405161017c9190611e23565b34801561022f57600080fd5b50600b545b60405190815260200161017c565b34801561024e57600080fd5b50610216610753565b34801561026357600080fd5b506101ff610272366004611e71565b610917565b34801561028357600080fd5b506101ff610292366004611e71565b610952565b3480156102a357600080fd5b5061021661096d565b6102346102ba366004611ead565b610b31565b3480156102cb57600080fd5b506101c76102da366004611d78565b610b44565b3480156102eb57600080fd5b506102ff6102fa366004611d78565b610b7d565b60405161017c929190611ecf565b34801561031957600080fd5b50610234610328366004611eec565b610c46565b61023461033b366004611f93565b610c8e565b34801561034c57600080fd5b5061019a610cd0565b34801561036157600080fd5b506101ff610370366004611fec565b610cdf565b6101ff610383366004611d78565b610cee565b6101ff610396366004611d78565b610e28565b3480156103a757600080fd5b506101ff6103b6366004612028565b610ea0565b6101ff6103c9366004611d78565b610ee2565b3480156103da57600080fd5b5061019a6103e9366004611d78565b611047565b6101ff6103fc366004611ead565b611157565b34801561040d57600080fd5b5061017061041c3660046120a4565b6001600160a01b03918216600090815260056020908152604080832093909416825291909152205460ff1690565b60006001600160e01b03198216632483248360e11b148061046f575061046f8261124f565b92915050565b606060008054610484906120d7565b80601f01602080910402602001604051908101604052809291908181526020018280546104b0906120d7565b80156104fd5780601f106104d2576101008083540402835291602001916104fd565b820191906000526020600020905b8154815290600101906020018083116104e057829003601f168201915b5050505050905090565b60006105128261129f565b506000908152600460205260409020546001600160a01b031690565b600061053982610b44565b9050806001600160a01b0316836001600160a01b03160361057d57604051630b61174360e31b81526001600160a01b03821660048201526024015b60405180910390fd5b336001600160a01b0382161480159061059d575061059b813361041c565b155b156105bd5760405163a9fbf51f60e01b8152336004820152602401610574565b6105c783836112d7565b505050565b606060006105d960085490565b905060006105e660095490565b6008546105f39190612127565b90506000808267ffffffffffffffff81111561061157610611611f07565b60405190808252806020026020018201604052801561064a57816020015b610637611cad565b81526020019060019003908161062f5790505b50905060005b8481101561074a5730600d600061066884600161213a565b81526020810191909152604001600020600201546001600160a01b03160361073857600061069782600161213a565b6000818152600d6020908152604091829020825160c0810184528154815260018201546001600160a01b039081169382019390935260028201549092169282019290925260038201546060820152600482015460ff8082161515608084015261010090910416151560a08201528551929350909185908790811061071d5761071d61214d565b602090810291909101015261073360018661213a565b945050505b8061074281612163565b915050610650565b50949350505050565b6060600061076060085490565b905060008060005b838110156107c25733600d600061078084600161213a565b81526020810191909152604001600020600201546001600160a01b0316036107b0576107ad60018461213a565b92505b806107ba81612163565b915050610768565b5060008267ffffffffffffffff8111156107de576107de611f07565b60405190808252806020026020018201604052801561081757816020015b610804611cad565b8152602001906001900390816107fc5790505b50905060005b8481101561074a5733600d600061083584600161213a565b81526020810191909152604001600020600201546001600160a01b03160361090557600061086482600161213a565b6000818152600d6020908152604091829020825160c0810184528154815260018201546001600160a01b039081169382019390935260028201549092169282019290925260038201546060820152600482015460ff8082161515608084015261010090910416151560a0820152855192935090918590879081106108ea576108ea61214d565b602090810291909101015261090060018661213a565b945050505b8061090f81612163565b91505061081d565b6109213382611345565b6109475760405163177e802f60e01b815233600482015260248101829052604401610574565b6105c78383836113c3565b6105c783838360405180602001604052806000815250610ea0565b6060600061097a60085490565b905060008060005b838110156109dc5733600d600061099a84600161213a565b81526020810191909152604001600020600101546001600160a01b0316036109ca576109c760018461213a565b92505b806109d481612163565b915050610982565b5060008267ffffffffffffffff8111156109f8576109f8611f07565b604051908082528060200260200182016040528015610a3157816020015b610a1e611cad565b815260200190600190039081610a165790505b50905060005b8481101561074a5733600d6000610a4f84600161213a565b81526020810191909152604001600020600101546001600160a01b031603610b1f576000610a7e82600161213a565b6000818152600d6020908152604091829020825160c0810184528154815260018201546001600160a01b039081169382019390935260028201549092169282019290925260038201546060820152600482015460ff8082161515608084015261010090910416151560a082015285519293509091859087908110610b0457610b0461214d565b6020908102919091010152610b1a60018661213a565b945050505b80610b2981612163565b915050610a37565b6000610b3d8383611551565b5090919050565b6000818152600260205260408120546001600160a01b03168061046f57604051637e27328960e01b815260048101849052602401610574565b610b85611cad565b600080610b9160085490565b9050805b8015610c32576000818152600d6020908152604091829020825160c081018452815480825260018301546001600160a01b0390811694830194909452600283015490931693810193909352600381015460608401526004015460ff8082161515608085015261010090910416151560a08301528614610c145750610c20565b95600195509350505050565b80610c2a8161217c565b915050610b95565b50610c3b611cad565b946000945092505050565b60006001600160a01b038216610c72576040516322718ad960e21b815260006004820152602401610574565b506001600160a01b031660009081526003602052604090205490565b6000610c9e600880546001019055565b6000610ca960085490565b9050610cb533826116c9565b610cbf81856117d0565b610cc98184611551565b9392505050565b606060018054610484906120d7565b610cea338383611858565b5050565b610cf6611902565b6000818152600d602052604090205480610d525760405162461bcd60e51b815260206004820152601860248201527f4d61726b6574206974656d2068617320746f20657869737400000000000000006044820152606401610574565b6000828152600d60205260409020600101546001600160a01b03163314610dcf5760405162461bcd60e51b815260206004820152602b60248201527f4f6e6c79206974656d2073656c6c65722063616e20706572666f726d2074686960448201526a399037b832b930ba34b7b760a91b6064820152608401610574565b610dda3033836113c3565b6000828152600d602052604090206002810180546001600160a01b03191633179055600401805461ff001916610100179055610e1a600a80546001019055565b50610e256001600755565b50565b600c546001600160a01b03163314610e9b5760405162461bcd60e51b815260206004820152603060248201527f4f6e6c79206d61726b6574706c616365206f776e65722063616e20757064617460448201526f32903634b9ba34b73390383934b1b29760811b6064820152608401610574565b600b55565b610eaa3383611345565b610ed05760405163177e802f60e01b815233600482015260248101839052604401610574565b610edc8484848461192c565b50505050565b6000818152600d6020526040902060038101546001909101546001600160a01b0316348214610f7b576040805162461bcd60e51b81526020600482015260248101919091527f506c65617365207375626d6974207468652061736b696e67207072696365206960448201527f6e206f7264657220746f20636f6d706c657465207468652070757263686173656064820152608401610574565b6000838152600d602052604090206002810180546001600160a01b0319908116331790915560048201805460ff1916600190811790915590910180549091169055610fca600980546001019055565b610fd53033856113c3565b600c54600b546040516001600160a01b039092169181156108fc0291906000818181858888f19350505050158015611011573d6000803e3d6000fd5b506040516001600160a01b038216903480156108fc02916000818181858888f19350505050158015610edc573d6000803e3d6000fd5b60606110528261129f565b6000828152600660205260408120805461106b906120d7565b80601f0160208091040260200160405190810160405280929190818152602001828054611097906120d7565b80156110e45780601f106110b9576101008083540402835291602001916110e4565b820191906000526020600020905b8154815290600101906020018083116110c757829003601f168201915b50505050509050600061110260408051602081019091526000815290565b90508051600003611114575092915050565b81511561114657808260405160200161112e929190612193565b60405160208183030381529060405292505050919050565b61114f8461196b565b949350505050565b6000828152600d60205260409020600201546001600160a01b031633146111d35760405162461bcd60e51b815260206004820152602a60248201527f4f6e6c79206974656d206f776e65722063616e20706572666f726d20746869736044820152691037b832b930ba34b7b760b11b6064820152608401610574565b600b5434146111f45760405162461bcd60e51b8152600401610574906121c2565b6000828152600d6020526040902060048101805460ff19169055600381018290556001810180546001600160a01b03199081163317909155600290910180549091163017905561124460096119de565b610cea3330846113c3565b60006001600160e01b031982166380ac58cd60e01b148061128057506001600160e01b03198216635b5e139f60e01b145b8061046f57506301ffc9a760e01b6001600160e01b031983161461046f565b6000818152600260205260409020546001600160a01b0316610e2557604051637e27328960e01b815260048101829052602401610574565b600081815260046020526040902080546001600160a01b0319166001600160a01b038416908117909155819061130c82610b44565b6001600160a01b03167f8c5be1e5ebec7d5bd14f71427d1e84f3dd0314c0f7b2291e5b200ac8c7c3b92560405160405180910390a45050565b60008061135183610b44565b9050806001600160a01b0316846001600160a01b0316148061139857506001600160a01b0380821660009081526005602090815260408083209388168352929052205460ff165b8061114f5750836001600160a01b03166113b184610507565b6001600160a01b031614949350505050565b60006113ce82610b44565b9050836001600160a01b0316816001600160a01b03161461141c576040516364283d7b60e01b81526001600160a01b0380861660048301526024820184905282166044820152606401610574565b6001600160a01b03831661144657604051633250574960e11b815260006004820152602401610574565b61144f82610b44565b9050836001600160a01b0316816001600160a01b03161461149d576040516364283d7b60e01b81526001600160a01b0380861660048301526024820184905282166044820152606401610574565b600082815260046020908152604080832080546001600160a01b03191690556001600160a01b0387168352600390915281208054600192906114e0908490612127565b90915550506001600160a01b03808416600081815260036020908152604080832080546001019055868352600290915280822080546001600160a01b031916841790555185938816917fddf252ad1be2c89b69c2b068fc378daa952ba7f163c4a11628f55a4df523b3ef91a4610edc565b600081116115a15760405162461bcd60e51b815260206004820152601c60248201527f5072696365206d757374206265206174206c65617374203120776569000000006044820152606401610574565b600b5434146115c25760405162461bcd60e51b8152600401610574906121c2565b6040805160c081018252838152336020808301828152308486018181526060860188815260006080880181815260a089018281528c8352600d9097529890209651875592516001870180546001600160a01b03199081166001600160a01b03938416179091559151600288018054909316911617905590516003850155935160049093018054915161ffff1990921693151561ff00191693909317610100911515919091021790915561167591846113c3565b60408051338152306020820152908101829052600060608201819052608082015282907f538153ed6048ec0057b06893633e5c91bd15b5456c7598a4ad59ed40e506cb8d9060a00160405180910390a25050565b6001600160a01b0382166116f357604051633250574960e11b815260006004820152602401610574565b6000818152600260205260409020546001600160a01b03161561172c576040516339e3563760e11b815260006004820152602401610574565b6000818152600260205260409020546001600160a01b031615611765576040516339e3563760e11b815260006004820152602401610574565b6001600160a01b038216600081815260036020908152604080832080546001019055848352600290915280822080546001600160a01b0319168417905551839291907fddf252ad1be2c89b69c2b068fc378daa952ba7f163c4a11628f55a4df523b3ef908290a45050565b6000828152600260205260409020546001600160a01b031661180857604051637e27328960e01b815260048101839052602401610574565b60008281526006602052604090206118208282612254565b506040518281527ff8e1a15aba9398e019f0b49df1a4fde98ee17ae345cb5f6b5e2c27f5033e8ce79060200160405180910390a15050565b816001600160a01b0316836001600160a01b03160361189557604051630b61174360e31b81526001600160a01b0384166004820152602401610574565b6001600160a01b03838116600081815260056020908152604080832094871680845294825291829020805460ff191686151590811790915591519182527f17307eab39ab6107e8899845ad3d59bd9653f200f220920489ca2b5937696c31910160405180910390a3505050565b60026007540361192557604051633ee5aeb560e01b815260040160405180910390fd5b6002600755565b6119378484846113c3565b61194384848484611a35565b610edc57604051633250574960e11b81526001600160a01b0384166004820152602401610574565b60606119768261129f565b600061198d60408051602081019091526000815290565b905060008151116119ad5760405180602001604052806000815250610cc9565b806119b784611b42565b6040516020016119c8929190612193565b6040516020818303038152906040529392505050565b805480611a2d5760405162461bcd60e51b815260206004820152601b60248201527f436f756e7465723a2064656372656d656e74206f766572666c6f7700000000006044820152606401610574565b600019019055565b60006001600160a01b0384163b15611b3757604051630a85bd0160e11b81526001600160a01b0385169063150b7a0290611a79903390899088908890600401612314565b6020604051808303816000875af1925050508015611ab4575060408051601f3d908101601f19168201909252611ab191810190612351565b60015b611b1d573d808015611ae2576040519150601f19603f3d011682016040523d82523d6000602084013e611ae7565b606091505b508051600003611b1557604051633250574960e11b81526001600160a01b0386166004820152602401610574565b805181602001fd5b6001600160e01b031916630a85bd0160e11b14905061114f565b506001949350505050565b60606000611b4f83611bd5565b600101905060008167ffffffffffffffff811115611b6f57611b6f611f07565b6040519080825280601f01601f191660200182016040528015611b99576020820181803683370190505b5090508181016020015b600019016f181899199a1a9b1b9c1cb0b131b232b360811b600a86061a8153600a8504945084611ba357509392505050565b60008072184f03e93ff9f4daa797ed6e38ed64bf6a1f0160401b8310611c145772184f03e93ff9f4daa797ed6e38ed64bf6a1f0160401b830492506040015b6d04ee2d6d415b85acef81000000008310611c40576d04ee2d6d415b85acef8100000000830492506020015b662386f26fc100008310611c5e57662386f26fc10000830492506010015b6305f5e1008310611c76576305f5e100830492506008015b6127108310611c8a57612710830492506004015b60648310611c9c576064830492506002015b600a831061046f5760010192915050565b6040805160c081018252600080825260208201819052918101829052606081018290526080810182905260a081019190915290565b6001600160e01b031981168114610e2557600080fd5b600060208284031215611d0a57600080fd5b8135610cc981611ce2565b60005b83811015611d30578181015183820152602001611d18565b50506000910152565b60008151808452611d51816020860160208601611d15565b601f01601f19169290920160200192915050565b602081526000610cc96020830184611d39565b600060208284031215611d8a57600080fd5b5035919050565b80356001600160a01b0381168114611da857600080fd5b919050565b60008060408385031215611dc057600080fd5b611dc983611d91565b946020939093013593505050565b80518252602081015160018060a01b03808216602085015280604084015116604085015250506060810151606083015260808101511515608083015260a0810151151560a08301525050565b6020808252825182820181905260009190848201906040850190845b81811015611e6557611e52838551611dd7565b9284019260c09290920191600101611e3f565b50909695505050505050565b600080600060608486031215611e8657600080fd5b611e8f84611d91565b9250611e9d60208501611d91565b9150604084013590509250925092565b60008060408385031215611ec057600080fd5b50508035926020909101359150565b60e08101611edd8285611dd7565b82151560c08301529392505050565b600060208284031215611efe57600080fd5b610cc982611d91565b634e487b7160e01b600052604160045260246000fd5b600067ffffffffffffffff80841115611f3857611f38611f07565b604051601f8501601f19908116603f01168101908282118183101715611f6057611f60611f07565b81604052809350858152868686011115611f7957600080fd5b858560208301376000602087830101525050509392505050565b60008060408385031215611fa657600080fd5b823567ffffffffffffffff811115611fbd57600080fd5b8301601f81018513611fce57600080fd5b611fdd85823560208401611f1d565b95602094909401359450505050565b60008060408385031215611fff57600080fd5b61200883611d91565b91506020830135801515811461201d57600080fd5b809150509250929050565b6000806000806080858703121561203e57600080fd5b61204785611d91565b935061205560208601611d91565b925060408501359150606085013567ffffffffffffffff81111561207857600080fd5b8501601f8101871361208957600080fd5b61209887823560208401611f1d565b91505092959194509250565b600080604083850312156120b757600080fd5b6120c083611d91565b91506120ce60208401611d91565b90509250929050565b600181811c908216806120eb57607f821691505b60208210810361210b57634e487b7160e01b600052602260045260246000fd5b50919050565b634e487b7160e01b600052601160045260246000fd5b8181038181111561046f5761046f612111565b8082018082111561046f5761046f612111565b634e487b7160e01b600052603260045260246000fd5b60006001820161217557612175612111565b5060010190565b60008161218b5761218b612111565b506000190190565b600083516121a5818460208801611d15565b8351908301906121b9818360208801611d15565b01949350505050565b60208082526024908201527f5072696365206d75737420626520657175616c20746f206c697374696e6720706040820152637269636560e01b606082015260800190565b601f8211156105c757600081815260208120601f850160051c8101602086101561222d5750805b601f850160051c820191505b8181101561224c57828155600101612239565b505050505050565b815167ffffffffffffffff81111561226e5761226e611f07565b6122828161227c84546120d7565b84612206565b602080601f8311600181146122b7576000841561229f5750858301515b600019600386901b1c1916600185901b17855561224c565b600085815260208120601f198616915b828110156122e6578886015182559484019460019091019084016122c7565b50858210156123045787850151600019600388901b60f8161c191681555b5050505050600190811b01905550565b6001600160a01b038581168252841660208201526040810183905260806060820181905260009061234790830184611d39565b9695505050505050565b60006020828403121561236357600080fd5b8151610cc981611ce256fea2646970667358221220325f4eda6933fc18b9460447e174c42b50a8e1dc4422942099a3008359e93a6764736f6c63430008130033",
  "linkReferences": {},
  "deployedLinkReferences": {}
}